{
  "_format": "hh-sol-artifact-1",
  "contractName": "Donate",
  "sourceName": "contracts/Donate.sol",
  "abi": [
    {
      "inputs": [],
      "name": "donate",
      "outputs": [],
      "stateMutability": "payable",
      "type": "function"
    },
    {
      "inputs": [],
      "name": "getBalance",
      "outputs": [
        {
          "internalType": "uint256",
          "name": "",
          "type": "uint256"
        }
      ],
      "stateMutability": "view",
      "type": "function"
    },
    {
      "inputs": [],
      "name": "owner",
      "outputs": [
        {
          "internalType": "address",
          "name": "",
          "type": "address"
        }
      ],
      "stateMutability": "view",
      "type": "function"
    },
    {
      "inputs": [
        {
          "internalType": "address payable",
          "name": "_to",
          "type": "address"
        }
      ],
      "name": "withdrawMoney",
      "outputs": [],
      "stateMutability": "nonpayable",
      "type": "function"
    }
  ],
  "bytecode": "0x608060405234801561001057600080fd5b5061062d806100206000396000f3fe60806040526004361061003f5760003560e01c806312065fe0146100445780632f9710291461006f5780638da5cb5b14610098578063ed88c68e146100c3575b600080fd5b34801561005057600080fd5b506100596100cd565b6040516100669190610492565b60405180910390f35b34801561007b57600080fd5b5061009660048036038101906100919190610375565b6100d5565b005b3480156100a457600080fd5b506100ad6101b4565b6040516100ba9190610435565b60405180910390f35b6100cb6101d8565b005b600047905090565b60008054906101000a900473ffffffffffffffffffffffffffffffffffffffff1673ffffffffffffffffffffffffffffffffffffffff163373ffffffffffffffffffffffffffffffffffffffff1614610163576040517f08c379a000000000000000000000000000000000000000000000000000000000815260040161015a90610472565b60405180910390fd5b8073ffffffffffffffffffffffffffffffffffffffff166108fc6101856100cd565b9081150290604051600060405180830381858888f193505050501580156101b0573d6000803e3d6000fd5b5050565b60008054906101000a900473ffffffffffffffffffffffffffffffffffffffff1681565b60013410156102245761021f6040518060400160405280601a81526020017f446f6e6174696f6e20616d6f756e7420697320746f6f206c6f7700000000000081525061029e565b61029c565b34600160008060009054906101000a900473ffffffffffffffffffffffffffffffffffffffff1673ffffffffffffffffffffffffffffffffffffffff1673ffffffffffffffffffffffffffffffffffffffff168152602001908152602001600020600082825461029491906104c9565b925050819055505b565b610334816040516024016102b29190610450565b6040516020818303038152906040527f41304fac000000000000000000000000000000000000000000000000000000007bffffffffffffffffffffffffffffffffffffffffffffffffffffffff19166020820180517bffffffffffffffffffffffffffffffffffffffffffffffffffffffff8381831617835250505050610337565b50565b60008151905060006a636f6e736f6c652e6c6f679050602083016000808483855afa5050505050565b60008135905061036f816105e0565b92915050565b60006020828403121561038757600080fd5b600061039584828501610360565b91505092915050565b6103a78161051f565b82525050565b60006103b8826104ad565b6103c281856104b8565b93506103d281856020860161056d565b6103db816105cf565b840191505092915050565b60006103f36009836104b8565b91507f4e6f74206f776e657200000000000000000000000000000000000000000000006000830152602082019050919050565b61042f81610563565b82525050565b600060208201905061044a600083018461039e565b92915050565b6000602082019050818103600083015261046a81846103ad565b905092915050565b6000602082019050818103600083015261048b816103e6565b9050919050565b60006020820190506104a76000830184610426565b92915050565b600081519050919050565b600082825260208201905092915050565b60006104d482610563565b91506104df83610563565b9250827fffffffffffffffffffffffffffffffffffffffffffffffffffffffffffffffff03821115610514576105136105a0565b5b828201905092915050565b600061052a82610543565b9050919050565b600061053c82610543565b9050919050565b600073ffffffffffffffffffffffffffffffffffffffff82169050919050565b6000819050919050565b60005b8381101561058b578082015181840152602081019050610570565b8381111561059a576000848401525b50505050565b7f4e487b7100000000000000000000000000000000000000000000000000000000600052601160045260246000fd5b6000601f19601f8301169050919050565b6105e981610531565b81146105f457600080fd5b5056fea26469706673582212208c88c86c40525799d6ed873b9b7c662fd0fa993af92b6c3102a300e45c080a0364736f6c63430008000033",
  "linkReferences": {},
  "deployedLinkReferences": {}
}